:020000040000FA
:0400000097EF0DF079
:08000800056ED8CF06F0E0CF31
:1000100007F00001E9CF0DF0EACF08F0E1CF09F0D9
:10002000E2CF0AF0D9CF0BF0DACF0CF0F3CF14F017
:10003000F4CF15F0FACF16F000C00FF001C010F0A9
:1000400002C011F003C012F004C013F0F2AA2CEFAA
:1000500000F0F2B4D5EF02F00FC000F010C001F0D4
:1000600011C002F012C003F013C004F00E8E0DC0D8
:10007000E9FF08C0EAFF09C0E1FF0AC0E2FF0BC0C8
:10008000D9FF0CC0DAFF14C0F3FF15C0F4FF16C08F
:10009000FAFF055007C0E0FF06C0D8FF1000F2CFFE
:1000A0000EF0F29EF76AB80FF66E000EF722090006
:1000B000F5500EBEF28E1200280C0106F2CF0EF0A3
:1000C000F29EF76AD60FF66E000EF7220900F55081
:1000D0000EBEF28E12002020202020202020202082
:1000E0002020202020200000F2CF0EF0F29EF76AA0
:1000F000020FF66E010EF7220900F5500EBEF28EC9
:100100001200205243204520564F4C2E2054454F7C
:100110005200F2CF0EF0F29EF76A2C0FF66E010E2F
:10012000F7220900F5500EBEF28E12006C00F2CFDD
:100130000EF0F29EF76A480FF66E010EF7220900E4
:10014000F5500EBEF28E12002500F2CF0EF0F29E98
:10015000F76A640FF66E010EF7220900F5500EBE25
:10016000F28E12005245434549544100F2CF0EF041
:10017000F29EF76A860FF66E010EF7220900F5501F
:100180000EBEF28E1200412045584543555441524F
:100190003A205B253032755D0000F2CF0EF0F29E02
:1001A000F76AB40FF66E010EF7220900F5500EBE85
:1001B000F28E120041204544495441523A202020F9
:1001C0005B253032755D0000F2CF0EF0F29EF76ACB
:1001D000E20FF66E010EF7220900F5500EBEF28E08
:1001E000120054454F520000F2CF0EF0F29EF76A13
:1001F000020FF66E020EF7220900F5500EBEF28EC7
:100200001200444553454A41444F3A20205B253073
:1002100032750000F2CF0EF0F29EF76A2E0FF66EE6
:10022000020EF7220900F5500EBEF28E1200255D77
:100230000000F2CF0EF0F29EF76A4C0FF66E020E3F
:10024000F7220900F5500EBEF28E1200542E484FD0
:100250004D4F47454E45495A4143414F0000F2CF6B
:100260000EF0F29EF76A780FF66E020EF722090082
:10027000F5500EBEF28E1200494E494349414C3AA8
:1002800020205B2530334C75735D0000F2CF0EF0FB
:10029000F29EF76AA60FF66E020EF7220900F550DD
:1002A0000EBEF28E12004150524F58494D41444FFC
:1002B0003A5B2530324C7500F2CF0EF0F29EF76AB1
:1002C000D20FF66E020EF7220900F5500EBEF28E26
:1002D000120054454D504F2056414C56554C41004C
:1002E000F2CF0EF0F29EF76AFA0FF66E020EF722C8
:1002F0000900F5500EBEF28E12004C4947414441B0
:100300003A2020205B2530334C75735D0000F2CF1E
:100310000EF0F29EF76A280FF66E030EF722090020
:10032000F5500EBEF28E12004445534C49474144ED
:10033000413A5B2530334C75735D0000F2CF0EF00F
:10034000F29EF76A560FF66E030EF7220900F5507B
:100350000EBEF28E120054454D504F2056414C5661
:10036000554C41204600F2CF0EF0F29EF76A800F06
:10037000F66E030EF7220900F5500EBEF28E120043
:100380002D2D2D2D2D2D2D2D2D2D2D2D2D2D2D2D9D
:100390000000F2CF0EF0F29EF76AAC0FF66E030E7D
:1003A000F7220900F5500EBEF28E120047414E486A
:1003B0004F3A202020205B2530344C755D00F2CF71
:1003C0000EF0F29EF76AD80FF66E030EF7220900C0
:1003D000F5500EBEF28E12004F46465345543A2059
:1003E00020205B2530344C755D00F2CF0EF0F29E7C
:1003F000F76A040FF66E040EF7220900F5500EBEE0
:10040000F28E1200484944524F4D4554524F00005D
:10041000F2CF0EF0F29EF76A2A0FF66E040EF72264
:100420000900F5500EBEF28E120052454C2E3A20B5
:100430005B2530352E324C77702F6C5D0000F2CF8B
:100440000EF0F29EF76A580FF66E040EF7220900BE
:10045000F5500EBEF28E12004D45544F444F2044CD
:100460004500F2CF0EF0F29EF76A7C0FF66E040E96
:10047000F7220900F5500EBEF28E12004C45495489
:100480005552413A20202020205B2530314C755DAB
:100490000000F2CF0EF0F29EF76AAC0FF66E040E7B
:1004A000F7220900F5500EBEF28E1200494E544557
:1004B0005256414C4F00F2CF0EF0F29EF76AD00F29
:1004C000F66E040EF7220900F5500EBEF28E1200F1
:1004D000414D4F535452413A5B2530344C756D7346
:1004E0005D00F2CF0EF0F29EF76AFC0FF66E040E7E
:1004F000F7220900F5500EBEF28E12004641544F0D
:1005000052204D4544494100F2CF0EF0F29EF76A69
:10051000220FF66E050EF7220900F5500EBEF28E80
:100520001200504F4E4445524144413A205B253021
:10053000334C755D0000F2CF0EF0F29EF76A500F5B
:10054000F66E050EF7220900F5500EBEF28E12006F
:1005500020202020434F525245544F520000F2CFEA
:100560000EF0F29EF76A780FF66E050EF72209007C
:10057000F5500EBEF28E1200202020444520554D2D
:10058000494441444500F2CF0EF0F29EF76AA00FB5
:10059000F66E050EF7220900F5500EBEF28E12001F
:1005A00056312E302E30306200003C0ED76EB00E29
:1005B000D66E3B2AD8B43C2AF2942CEF00F06A5055
:1005C0006C02F3CF01F0F4CF00F06D02F35000267F
:1005D0006B506C02F3500020026E02EF03F0F2CF7A
:1005E00067F0F29E66C0A9FFA69CA69EA680A850B2
:1005F00067BEF28E696E6B6A69C06AF0010E6D6E3D
:100600006C6ADDD702C06BF001C06AF0010E66248F
:100610006C6EF2CF6DF0F29E6CC0A9FFA69CA69EF8
:10062000A680A8506DBEF28E6A24016E000E6B206B
:10063000036E0150016E0350026E000CEA6A750EE3
:10064000E96EEF500DE0020E016E006A002EFED73B
:10065000012EFBD7970E006E002EFED7EF2EF3D79C
:10066000000C7C38F00B006E0F0E81140010816EB0
:100670000000818000D000D08190000CF00E936EBD
:10068000818400008180000081380F0B7C6E819096
:100690000000818000D081380F0B7B6E8190000EAE
:1006A000936E7C38006EF00E001600507B10016EC9
:1006B0005CEF03F08192E2D701C07BF001BEFBD773
:1006C00079A0819279B081820000819400008190AC
:1006D0007A387B6E0F0E7B167BC07CF0C2DF7A50BF
:1006E0000F0B7B6E7C6EBDDF000C000E936E819253
:1006F000819481900F0E756EA1DF010E666E6650BB
:10070000030808E3030E7C6EACDF050E756E96DF02
:10071000662AF5D7020E7C6EA4DF666A665003086F
:100720000EE3036A6650F2CF67F0F29EB8DC67BE54
:10073000F28E686E796A7A6EBDDF662AEFD74AEF6D
:100740000EF0762C01D003D0400E776E01D0776A80
:10075000010E755C772677508009786E796A7A6E1B
:10076000A9DF000C74500C0A05E0060A0BE0020A2F
:100770000FE013D0796A010E7A6E9CDF020E756E5F
:100780005DDF11D0010E756E020E766EDADF0BD0D2
:10079000796A100E7A6E8EDF06D0010E796E74C003
:1007A0007AF088DF00D0000C010E756E766EC9DF1E
:1007B000666A665083DC000904E0662A746ED2DF44
:1007C000F8D7010E756E020E766EBBDF666A665054
:1007D00075DC000904E0662A746EC4DFF8D7010EE8
:1007E000756E766EAEDF000C675207E018B003D06E
:1007F0001882188001D0189202D018921890000E1A
:1008000018B2010E016E96EF07F094908B809492CF
:100810008B9294948B94948682A604D01884010EB3
:10082000016E55D0948882A804D01884040E016EFD
:100830004ED0948A82AA04D01884070E016E47D045
:1008400094908B9094928B8294948B94948682A6AD
:1008500004D01884020E016E3AD0948882A804D085
:100860001884050E016E33D0948A82AA04D01884AD
:10087000080E016E2CD0948C82AC04D01884000E2B
:10088000016E25D094908B9094928B9294948B844B
:10089000948682A604D01884030E016E18D0948822
:1008A00082A804D01884060E016E11D0948A82AA00
:1008B00004D01884090E016E0AD094908B90949203
:1008C0008B9294948B940A0E016E01D01894000CB4
:1008D0006A50016A695C03E269C000F00CD0006AEA
:1008E000080E6B6E693600366A50005CD8B0006E38
:1008F00001366B2EF7D7000C015067C069F0640E0B
:100900006A6EE6DF00C067F00150300E07E168A2B2
:100910000CD068B60AD068B8200E03D068966898E4
:100920006880012601C074F01DDF67C069F00A0EFF
:100930006A6ECEDF00C067F00150300E06E168B687
:1009400008D068A006D068B8200E012601C074F057
:1009500009DF300E672667C074F004DF000CEACFB1
:100960006FF0E9CF6EF06838F0096A6E6A26E20F20
:100970006B6E320F6D6E68500F0B6B266B266D26FB
:10098000E90F6C6E6C266C2667380F0B6C266D2693
:100990006C366D366D1E6D3667500F0B6D266A36E0
:1009A000070E696E0A0E6C066D26FDE36B066C265B
:1009B000FDE36A066B26FDE369066A26FDE3EA6A43
:1009C000690EE96E070E6E146E9CE9266D0EE95CE9
:1009D000D8B46E8CEF50006E08E16EBC06D06EB8D5
:1009E00013D06EB602D0200E03D06E866E98300EF5
:1009F0000026EACF68F0E9CF67F000C074F0B2DEFD
:100A000068C0EAFF67C0E9FFEE506EACDFD7000CAC
:100A1000006A016A026A036A7C6A7D6A7E6A7F6A8A
:100A20007B507A10791078102CE0200E806FD890CF
:100A300074367536763677367C367D367E367F363A
:100A40007B507F5C08E17A507E5C05E179507D5CEB
:100A500002E178507C5C0FE378507C5E7950D8A03E
:100A6000793C7D5E7A50D8A07A3C7E5E7B50D8A0DF
:100A70007B3C7F5ED8800036013602360336802FFD
:100A8000D6D7EA6A7C0EE96E000C746A756A010EAC
:100A9000766EDA6AD96A796A6C0E786EEA6A700ED6
:100AA000E96E79C0E2FF78C0E1FF76C077F0D890B8
:100AB000E550EE02F3507422F4507522772EF7D7EA
:100AC00074C0DEFF75C074F0756AD8B0752A782AD4
:100AD000D8B4792A762A76500508E0E1000C6AC07D
:100AE0001CF069C01BF068C01AF067C019F06650AE
:100AF0000908D8A07ED16AC077F069C076F068C0D6
:100B000075F067C074F07B6A7A6A270E796E100EF2
:100B1000786E7EDF03C030F002C02FF001C02EF0EF
:100B200000C02DF06AC077F069C076F068C075F03B
:100B300067C074F07B6A7A6A270E796E100E786E41
:100B400067DFEFCF6CF0ECCF6DF0ECCF6EF0ECCF59
:100B50006FF0EACF71F0E9CF70F06FC077F06EC040
:100B600076F06DC075F06CC074F07B6A7A6A030E23
:100B7000796EE80E786E4CDF71C0EAFF70C0E9FF55
:100B800003C02CF002C02BF001C02AF000C029F0F5
:100B90006AC077F069C076F068C075F067C074F01D
:100BA0007B6A7A6A030E796EE80E786E31DFEFCFDA
:100BB0006CF0ECCF6DF0ECCF6EF0ECCF6FF0EACFD5
:100BC00071F0E9CF70F06FC077F06EC076F06DC055
:100BD00075F06CC074F07B6A7A6A796A640E786E1C
:100BE00017DF71C0EAFF70C0E9FF03C028F002C040
:100BF00027F001C026F000C025F06AC077F069C078
:100C000076F068C075F067C074F07B6A7A6A796ABA
:100C1000640E786EFDDEEFCF6CF0ECCF6DF0ECCFB4
:100C20006EF0ECCF6FF0EACF71F0E9CF70F06FC0EB
:100C300077F06EC076F06DC075F06CC074F07B6AB2
:100C40007A6A796A0A0E786EE3DE71C0EAFF70C0D4
:100C5000E9FF03C024F002C023F001C022F000C06D
:100C600021F06AC077F069C076F068C075F067C09F
:100C700074F07B6A7A6A796A0A0E786EC9DEEFCF01
:100C80001DF0ECCF1EF0ECCF1FF0ECCF20F02CC00D
:100C900030F02BC02FF02AC02EF029C02DF028C034
:100CA0002CF027C02BF026C02AF025C029F024C044
:100CB00028F023C027F022C026F021C025F020C054
:100CC00024F01FC023F01EC022F01DC021F0206AB6
:100CD0001F6A1E6A66C01DF0010E6B5CFC0F2BE2E2
:100CE000040F02EF07F0306A2F6A2E6A2D6A2C6A11
:100CF0002B6A2A6A296A286A276A266A256A246A68
:100D0000236A226A216A306A2F6A2E6A2D6A2C6A47
:100D10002B6A2A6A296A286A276A266A256A306A3B
:100D20002F6A2E6A2D6A2C6A2B6A2A6A296A306A0F
:100D30002F6A2E6A2D6A24C06FF023C06EF022C085
:100D40006DF021C06CF0736A726A716A0A0E706E7F
:100D50009CDE00501D24196E01501E201A6E025098
:100D60001F201B6E035020201C6E28C06FF027C070
:100D70006EF026C06DF025C06CF0736A726A716AFD
:100D8000640E706E82DE0050192601501A22025045
:100D90001B2203501C222CC06FF02BC06EF02AC007
:100DA0006DF029C06CF0736A726A030E716EE80E02
:100DB000706E6BDE0050192601501A2202501B2261
:100DC00003501C2230C06FF02FC06EF02EC06DF0AB
:100DD0002DC06CF0736A726A270E716E100E706E01
:100DE00054DE0050192601501A2202501B220350D3
:100DF0001C2219C000F01AC001F01BC002F01CC078
:100E000003F0000CF2CF0EF0F29EE824F76AF736FA
:100E1000290FF66E0E0EF7220A00F550FA6E080042
:100E2000F5500EBEF28EF96EE60C060D1E0D2E0D5F
:100E3000E9506C6E3B0E736E9A0E726ECA0E716E36
:100E4000706A0A0E6E6E6B50D8A46C066AC077F09A
:100E500069C076F068C075F067C074F073C07BF04D
:100E600072C07AF071C079F070C078F0D1DD0150B5
:100E7000EFCF67F0ECCF68F0ECCF69F0ECCF6AF021
:100E800000520FE16B286E5C0CE06C500BE00F0B16
:100E90006E5C01E019E26CBE17D06CBC03D0200E72
:100EA0000FD06C6A6B506E5C0AE100C06CF02E0EC5
:100EB000746E58DC6CC000F0200E6C16000E300E04
:100EC000002600C074F04EDC73C077F072C076F07C
:100ED00071C075F070C074F07B6A7A6A796A0A0E24
:100EE000786E96DD03C073F002C072F001C071F03D
:100EF00000C070F06E2EAAD7F3EF0BF0958083A0A0
:100F000003D0326A010E316E958283A203D0326A19
:100F10000B0E316E958483A403D0326A650E316E58
:100F20009586000E83B6010E676E5ED4189601B0EA
:100F300018866BDC01C03DF068DC01503E5C04E0CB
:100F400064DC01C03EF002D00A0E3D6E31C000F0FC
:100F50003250036E04E1010E005CD8B466D0035039
:100F600004E10B0E005CD8B4B7D0035004E10C0EC2
:100F7000005CD8B4F2D0035004E10D0E005CD8B48C
:100F80002DD1035004E10E0E005CD8B46FD1035094
:100F900004E10F0E005CD8B4B3D1035004E1100E8D
:100FA000005CD8B4FAD1035004E1110E005CD8B44F
:100FB0003ED2035004E1120E005CD8B482D203503A
:100FC00004E1130E005CD8B4BED2035004E1140E49
:100FD000005CD8B402D3035004E1650E005CD8B4C1
:100FE00046D3035004E1660E005CD8B486D30350A8
:100FF00005E1670E005CD8B4C3EF0BF0035005E1C8
:10100000680E005CD8B416EF0CF0035005E1690ED1
:10101000005CD8B45CEF0CF0035005E16A0E005C94
:10102000D8B4AAEF0CF0F0EF0CF0D4EC03F0010E02
:10103000756E766EA1EC03F0666A665074EC00F093
:10104000000905E0662A746EB2EC03F0F6D7020ED2
:10105000756E766EA1EC03F035C067F01B0E686EFE
:101060004BDC050E756E020E766EA1EC03F037C0F8
:1010700067F01B0E686E40DC070E756E020E766E12
:10108000A1EC03F0100EE96E39C068F038C067F0CB
:1010900066DC666A665089EC00F0000905E0662AA5
:1010A000746EB2EC03F0F6D70C0E756E020E766E0F
:1010B000A1EC03F03AC067F01B0E686E1DDC666A97
:1010C000665097EC00F0000905E0662A746EB2ECF9
:1010D00003F0F6D7F0EF0CF0D4EC03F0010E756ED0
:1010E000766EA1EC03F0666A6650A5EC00F000098C
:1010F00005E0662A746EB2EC03F0F6D7010E756E49
:10110000020E766EA1EC03F0666A6650B6EC00F053
:10111000662A006E746EB2EC03F00D0E665CF5E1AB
:1011200035C067F0010E686E7CEC04F05D0E746EE5
:10113000B2EC03F03DC066F06A6A696A686A35C05D
:1011400067F0020E6B6ECBDC00C035F018A603D042
:10115000312AD8B4322AF0EF0CF0D4EC03F0010EAF
:10116000756E766EA1EC03F0666A6650A5EC00F031
:10117000000905E0662A746EB2EC03F0F6D7010EA2
:10118000756E020E766EA1EC03F0666A6650CDECC9
:1011900000F0662A006E746EB2EC03F00D0E665C11
:1011A000F5E136C067F0010E686E7CEC04F05D0E70
:1011B000746EB2EC03F03DC066F06A6A696A686AF0
:1011C00036C067F0020E6B6E8ADC00C036F018A6DF
:1011D00003D0326A0D0E316EF0EF0CF0D4EC03F058
:1011E000010E756E766EA1EC03F0666A6650E4EC53
:1011F00000F0000905E0662A746EB2EC03F0F6D741
:10120000010E756E020E766EA1EC03F0666A6650F2
:10121000F4EC00F0662A006E746EB2EC03F00C0E73
:10122000665CF5E13FC067F0010E686E7CEC04F08F
:10123000666A66500AEC01F0000905E0662A746EE1
:10124000B2EC03F0F6D73DC066F06A6A696A686A74
:101250003FC067F0020E6B6E42DC00C03FF018A684
:1012600003D0326A0E0E316EF0EF0CF0D4EC03F0C6
:10127000010E756E766EA1EC03F0666A665019EC8D
:1012800001F0000905E0662A746EB2EC03F0F6D7AF
:10129000010E756E020E766EA1EC03F0666A665062
:1012A0002FEC01F0662A006E746EB2EC03F00B0EA8
:1012B000665CF5E10A0EE96E41C068F040C067F077
:1012C000AFEC04F0730E746EB2EC03F05D0E746E4E
:1012D000B2EC03F03DC066F06A6A696A41C068F02A
:1012E00040C067F0030E6B6E6FEC05F001C041F07B
:1012F00000C040F018A603D0326A0F0E316E70D3D2
:10130000D4EC03F0010E756E766EA1EC03F0666A04
:101310006650E4EC00F0000905E0662A746EB2EC59
:1013200003F0F6D7010E756E020E766EA1EC03F097
:10133000666A665046EC01F0662A006E746EB2EC86
:1013400003F00C0E665CF5E10B0EE96E43C068F02D
:1013500042C067F0AFEC04F0666A66500AEC01F038
:10136000000905E0662A746EB2EC03F0F6D73DC0C2
:1013700066F06A6A696A43C068F042C067F0020EAC
:101380006B6E6FEC05F001C043F000C042F018A690
:1013900003D0326A100E316E23D3D4EC03F0010E69
:1013A000756E766EA1EC03F0666A66505CEC01F037
:1013B000000905E0662A746EB2EC03F0F6D7010E60
:1013C000756E020E766EA1EC03F0666A665070ECE4
:1013D00001F0662A006E746EB2EC03F00B0E665CD0
:1013E000F5E10A0EE96E45C068F044C067F0AFEC65
:1013F00004F0730E746EB2EC03F05D0E746EB2EC1A
:1014000003F03DC066F06A6A696A45C068F044C08E
:1014100067F0030E6B6E6FEC05F001C045F000C085
:1014200044F018A603D0326A110E316ED9D2D4EC32
:1014300003F0010E756E766EA1EC03F0666A6650DD
:101440005CEC01F0000905E0662A746EB2EC03F072
:10145000F6D7010E756E020E766EA1EC03F0666A89
:10146000665087EC01F0662A006E746EB2EC03F0F1
:101470000B0E665CF5E10A0EE96E47C068F046C0E7
:1014800067F0AFEC04F0730E746EB2EC03F05D0E17
:10149000746EB2EC03F03DC066F06A6A696A47C0D8
:1014A00068F046C067F0030E6B6E6FEC05F001C08C
:1014B00047F000C046F018A603D0326A120E316E13
:1014C0008FD2D4EC03F0010E756E766EA1EC03F0B2
:1014D000666A665019EC01F0000905E0662A746E30
:1014E000B2EC03F0F6D70B0E756E020E766EA1EC21
:1014F00003F05B0E746EB2EC03F00A0EE96E49C0A5
:1015000068F048C067F0AFEC04F0730E746EB2EC94
:1015100003F05D0E746EB2EC03F03DC066F06A6AD3
:10152000696A49C068F048C067F0030E6B6E6FECE3
:1015300005F001C049F000C048F018A603D0326A97
:10154000130E316E4DD2D4EC03F0010E756E766E33
:10155000A1EC03F0666A66509EEC01F0000905E01C
:10156000662A746EB2EC03F0F6D7010E756E020EA9
:10157000766EA1EC03F0666A665070EC01F0662AA4
:10158000006E746EB2EC03F00B0E665CF5E10A0EB1
:10159000E96E4BC068F04AC067F0AFEC04F0730E20
:1015A000746EB2EC03F05D0E746EB2EC03F03DC0ED
:1015B00066F06A6A696A4BC068F04AC067F0030E59
:1015C0006B6E6FEC05F001C04BF000C04AF018A63E
:1015D00003D0326A140E316E03D2D4EC03F0010E44
:1015E000756E766EA1EC03F0666A66509EEC01F0B3
:1015F000000905E0662A746EB2EC03F0F6D7010E1E
:10160000756E020E766EA1EC03F0666A665087EC8A
:1016100001F0662A006E746EB2EC03F00B0E665C8D
:10162000F5E10A0EE96E4DC068F04CC067F0AFEC12
:1016300004F0730E746EB2EC03F05D0E746EB2ECD7
:1016400003F03DC066F06A6A696A4DC068F04CC03C
:1016500067F0030E6B6E6FEC05F001C04DF000C03B
:101660004CF018A603D0326A0B0E316EB9D1D4EC0F
:1016700003F0010E756E766EA1EC03F0666A66509B
:10168000B3EC01F0000905E0662A746EB2EC03F0D9
:10169000F6D7010E756E020E766EA1EC03F0666A47
:1016A0006650C9EC01F0662A006E746EB2EC03F06D
:1016B0000B0E665CF5E1090EE96E4FC068F04EC096
:1016C00067F0AFEC04F05D0E746EB2EC03F03DC059
:1016D00066F06A6A696A4FC068F04EC067F0040E2F
:1016E0006B6E6FEC05F001C04FF000C04EF018A615
:1016F00003D0326A660E316E73D1D4EC03F0010E62
:10170000756E766EA1EC03F0666A6650B3EC01F07C
:10171000000905E0662A746EB2EC03F0F6D7010EFC
:10172000756E020E766EA1EC03F0666A6650DFEC11
:1017300001F0662A006E746EB2EC03F00B0E665C6C
:10174000F5E1090EE96E53C068F052C067F0AFECE6
:1017500004F05D0E746EB2EC03F03DC066F06A6A90
:10176000696A53C068F052C067F0040E6B6E6FEC8C
:1017700005F001C053F000C052F018A603D0326A41
:10178000670E316E2DD1D4EC03F0010E756E766EBE
:10179000A1EC03F0666A6650F5EC01F0000905E083
:1017A000662A746EB2EC03F0F6D7010E756E020E67
:1017B000766EA1EC03F0666A665008EC02F0662AC9
:1017C000006E746EB2EC03F0070E665CF5E1450E38
:1017D000E96E6A6A696A57C068F056C067F0020E1F
:1017E0006B6E18EF07F00E0E676E675008EC02F094
:1017F000672A006E746EB2EC03F0120E675CF5E1BE
:101800003DC066F06A6A696A57C068F056C067F002
:10181000040E6B6E6FEC05F001C057F000C056F07F
:1018200018A603D0326A680E316EDAD0D4EC03F019
:10183000010E756E766EA1EC03F0666A66501FECC1
:1018400002F0000905E0662A746EB2EC03F0F6D7E8
:10185000010E756E020E766EA1EC03F0666A66509C
:1018600031EC02F0662A006E746EB2EC03F00E0EDC
:10187000665CF5E10C0EE96E5BC068F05AC067F07B
:10188000AFEC04F05D0E746EB2EC03F03DC066F098
:101890006A6A696A5BC068F05AC067F0010E6B6ED5
:1018A0006FEC05F001C05BF000C05AF018A603D041
:1018B000326A690E316E94D0D4EC03F0010E756E6D
:1018C000766EA1EC03F0666A665049EC02F00009FE
:1018D00005E0662A746EB2EC03F0F6D7010E756E61
:1018E000020E766EA1EC03F0666A66505BEC02F0C5
:1018F000662A006E746EB2EC03F0090E665CF5E1C8
:10190000090EE96E5FC068F05EC067F0AFEC04F0EE
:101910006D0E746EB2EC03F0730E746EB2EC03F0E5
:101920005D0E746EB2EC03F03DC066F06A6A696ADF
:101930005FC068F05EC067F0040E6B6E6FEC05F080
:1019400001C05FF000C05EF018A603D0326A6A0ED4
:10195000316E46D0D4EC03F0010E756E766EA1ECBC
:1019600003F0666A665071EC02F0000905E0662A31
:10197000746EB2EC03F0F6D7010E756E020E766E41
:10198000A1EC03F0666A665084EC02F0662A006EF1
:10199000746EB2EC03F00C0E665CF5E10A0EE96EB3
:1019A00063C068F062C067F0AFEC04F05D0E746E67
:1019B000B2EC03F03DC066F06A6A696A63C068F021
:1019C00062C067F0030E6B6E6FEC05F001C063F050
:1019D00000C062F018A603D0326A650E316E00D0E6
:1019E0009AEF0EF068C069F06A6A66C0A9FF68C025
:1019F000A8FFA69CA69EA684F2CF00F0F29E0F013F
:101A0000550EA76EAA0EA76EA682A6B2FED7A69402
:101A10000050F212010E6624696E67C06AF06B6AAC
:101A2000A96E67C0A8FFA69CA69EA684F2CF00F070
:101A3000F29E550EA76EAA0EA76EA682A6B2FED77C
:101A4000A6940050F2120001000C3150335C04E106
:101A50003250345CD8B469D032C034F031C033F085
:101A60004E50505C03E14F50515C0AE04FC051F0C2
:101A70004EC050F0666A4FC068F04EC067F0B2DFEB
:101A80005250545C03E15350555C0BE053C055F089
:101A900052C054F0020E666E53C068F052C067F038
:101AA000A1DF5650585C03E15750595C0BE057C01A
:101AB00059F056C058F0040E666E57C068F056C014
:101AC00067F090DF5A505C5C03E15B505D5C0BE0BB
:101AD0005BC05DF05AC05CF0060E666E5BC068F0DD
:101AE0005AC067F07FDF5E50605C03E15F50615C6D
:101AF0000BE05FC061F05EC060F0080E666E5FC014
:101B000068F05EC067F06EDF6250645C03E16350B2
:101B1000655C0BE063C065F062C064F00A0E666E3F
:101B200063C068F062C067F05DDF9BEF0EF0F86A9B
:101B3000D09E0D8EEA6AE96AC150C00B0F09C16ED2
:101B4000070EB46E189018921894196A1A6A1B6AD4
:101B50001C6A1D6A1E6A1F6A206A216A226A236A39
:101B6000246A256A266A276A286A296A2A6A2B6AE9
:101B70002C6A2D6A2E6A2F6A306A316A326A336A99
:101B8000346A356A366A376A386A396A3A6A3B6A49
:101B90003C6A3D6A3E6A18963F6A406A416A426AF8
:101BA000436A446A456A466A476A486A496A4A6AB1
:101BB0004B6A4C6A4D6A4E6A4F6A506A516A526A61
:101BC000536A546A556A566A576A586A596A5A6A11
:101BD0005B6A5C6A5D6A5E6A5F6A606A616A626AC1
:101BE000636A646A656A700ED36ED350C00EF212D7
:101BF000F28A810ED56E3C0ED76EB00ED66EA50E53
:101C0000CD6E666AEFEC02F002C04FF001C04EF0FC
:101C10004FC051F04EC050F0020E666EEFEC02F075
:101C200002C053F001C052F053C055F052C054F0FE
:101C3000040E666EEFEC02F002C057F001C056F0E1
:101C400057C059F056C058F0060E666EEFEC02F021
:101C500002C05BF001C05AF05BC05DF05AC05CF09E
:101C6000080E666EEFEC02F002C05FF001C05EF09D
:101C70005FC061F05EC060F00A0E666EEFEC02F0CD
:101C800002C063F001C062F063C065F062C064F03E
:101C900075EF03F0010E756E766EA1EC03F0666AC7
:101CA00066509BEC02F0000905E0662A746EB2EC07
:101CB00003F0F6D7010E756E020E766EA1EC03F0FE
:101CC000666A6650AFEC02F0000905E0662A746EA1
:101CD000B2EC03F0F6D7040E666EFA0E756E1EECCB
:101CE00003F0662EFAD7D4EC03F0090E756E020EDF
:101CF000766EA1EC03F0666A6650C3EC02F0000950
:101D000005E0662A746EB2EC03F0F6D7040E666E38
:101D1000FA0E756E1EEC03F0662EFAD7326A010ECB
:101D2000316E3C5203E13B50000805E23C6A3B6ADD
:0A1D30007EEF07F08AD6F5D7030016
:020000040030CA
:0E00000000091E1E008381000FC00FE00F409C
:00000001FF
;PIC18F4520
